:020000040800F2
:10000000083F0020A9060008290400082B04000866
:100010002D0400082F04000831040008000000002F
:100020000000000000000000000000003304000891
:1000300035040008000000008F6A0008B1050008C0
:10004000C3060008C3060008C3060008C30600086C
:10005000C3060008C3060008C3060008C30600085C
:10006000C3060008C3060008C3060008C30600084C
:10007000C3060008C3060008C3060008C30600083C
:10008000C3060008C3060008C3060008C30600082C
:10009000C3060008C3060008C3060008C30600081C
:1000A000C3060008C3060008C3060008C30600080C
:1000B000C3060008C3060008C3060008C3060008FC
:1000C000C3060008C3060008C3060008C3060008EC
:1000D000C3060008C3060008C3060008C3060008DC
:1000E000C3060008C3060008C3060008C3060008CC
:1000F000C3060008C3060008C3060008C3060008BC
:10010000C3060008C3060008C3060008C3060008AB
:10011000C3060008C3060008C3060008C30600089B
:10012000C3060008C3060008C3060008C30600088B
:1001300000F002F800F03AF80AA090E8000C8244BF
:100140008344AAF10107DA4501D100F02FF8AFF29C
:10015000090EBAE80F0013F0010F18BFFB1A43F0A5
:1001600001031847B46B0000D46B0000103A24BFA1
:1001700078C878C1FAD8520724BF30C830C144BF0C
:1001800004680C607047000000230024002500264E
:10019000103A28BF78C1FBD8520728BF30C148BFEA
:1001A0000B6070471FB51FBD10B510BD06F01AFCDF
:1001B0001146FFF7F7FF00F0BAF806F038FC03B479
:1001C000FFF7F2FF03BC06F03FFC00000EB5002570
:1001D00002AC0022CDE9005405231146104605F07B
:1001E00056FEF6E70EB5002502AC0023CDE900541B
:1001F00002221946184605F04AFEF6E70EB500251C
:1002000002AC0023CDE9005403221946184605F03C
:100210003EFEF6E70EB5002502AC0023CDE9005402
:1002200005221946184605F032FEF6E72DE9F0439F
:100230008BB000F04EFC09A804F0E7FA012109AAEE
:10024000084601F0A4FE00F019FDDFF8609199F86E
:100250000010491C89F8001000F014FD002403264A
:10026000CDE9064609AD802751494FF00C080895A5
:10027000059406202346AFF2AB028DE803014C48FB
:10028000CDE903744BA1C43804F055FDCDE9064611
:100290004D490720089505940023AFF2B7028DE879
:1002A00003014948CDE9037448A1C43804F043FD73
:1002B000CDE906464A490820089505940023AFF287
:1002C000C3028DE803014648CDE9037445A1C43853
:1002D00004F031FDCDE90646474914200895059400
:1002E0000023AFF2CF028DE803014348CDE9037448
:1002F00042A1C43804F01FFD09A9464805F015FBCA
:1003000000F0BCFC99F80010491E11F0FF0189F8BB
:10031000001009D14049098831B100F0B3FC02F066
:10032000AFF90BB0BDE8F08300F0ACFCF9E78AB0A0
:100330004FF4A06000F0D8F909A801F0BAFC00F071
:100340009DFC1A4C2178491C217000F09BFC002078
:1003500006AB09AA0321059083E8070033234FF475
:100360000072CDE902322B4D0490C4350346AFF242
:100370004312CDE9001529A1264804F0DCFC00F069
:100380007DFC2178491E11F0FF01217007D122491F
:10039000098821B100F076FC02F072F901E000F06A
:1003A00071FC09A801F0B1FEFEE70000A4000020E6
:1003B000900A00205461736B5F546573745F315F02
:1003C0007461736B00000000540D00205461736B66
:1003D0005F546573745F325F7461736B000000007B
:1003E000181000205461736B5F546573745F335F42
:1003F0007461736B00000000DC12002043686563C9
:100400006B5F537461636B5F4375705F7461736B93
:100410000000000008010020680000207374617271
:1004200074207461736B00007047FEE7FEE7FEE71F
:10043000FEE77047704700000CB500224C48009260
:100440000192016841F4803101604FF4A0630168BA
:1004500001F4003101910099491C0091019911B9F1
:1004600000999942F3D10168890333D501210191A3
:1004700040490A6842F010020A600A6822F003024A
:100480000A600A6842F002020A60416841604168FD
:100490004160416841F480614160416821F47C1110
:1004A0004160416841F4E8114160016841F08071A8
:1004B000016001688901FCD5416821F003014160B8
:1004C000416841F0020141604168C1F381010229A4
:1004D000FAD10CBD01920CBD254810B5016841F060
:1004E000010101604168244A114041600168234ACA
:1004F00011400160016821F480210160416821F40C
:10050000FE0141604FF41F018160FFF795FF1C4918
:100510004FF00060086010BD154A10B55068194BC7
:1005200010F00C01184803D0042901D0082901D08B
:10053000036012E05168536801F470114FF0020437
:1005400013F4803F04EB914102D053689B0301D523
:100550000E4B00E00B4B5943016051680A4AC1F34E
:100560000311121D515C0268CA40026010BD0000F8
:1005700000100240002002400000FFF8FFFFF6FEDE
:1005800008ED00E000127A000000002000093D00A4
:1005900008B5684601F094FC08BD08B5684601F04E
:1005A000C8FC08BD08B56A46082105F021FC08BD55
:1005B000364810B50078012807D101F00BFC05F092
:1005C00074FDBDE8104001F010BC10BD10B56FF017
:1005D000040000F0CEF82E482E492F4B0068304C16
:1005E000B0FBF1F2B0FBF1F01A702C4A1168B4FBC9
:1005F000F1F1414310684FF47A72B2FBF0F0588089
:100600004FF0E020026942F002020261416101699B
:1006100041F00101016110BDF8B54FF0E027002461
:100620007E691D49097800FB01F5684601F048FC28
:10063000B969B8698842FCD002D2A1EB000102E09E
:10064000A6EB000211440C440146AC42F1D36846CB
:1006500001F06FFCF8BD70B504460C48007878B125
:100660001048007860B90C4D6888844203D3B4FB0D
:10067000F0F0FFF797FF6888B4FBF0F100FB11443E
:100680004FF47A706043BDE87040C5E75D0000201C
:100690000000002000127A0014000020E46C000822
:1006A00040420F005C00002009488047094800478D
:1006B000FEE7FEE7FEE7FEE7FEE7FEE7FEE7FEE712
:1006C000FEE7FEE704480549054A064B704700006F
:1006D000D90400083101000808350020083F002037
:1006E00008370020083700202849084328490860B7
:1006F000704730B50F23C27801780125F2B1244A42
:10070000126801F1E02102F4E062C2F5E062120A2F
:10071000C2F10404D3404278A24084781C401443C0
:10072000220181F80024007800F01F018D4040096B
:10073000800000F1E020C0F8005130BD01F01F0042
:1007400085404809800000F1E020C0F8805130BDAC
:10075000104A114001430E48001F016070470C4AC7
:10076000121D0029116801D0014300E0814311608E
:1007700070474FF0E0210428086903D020F00400FE
:100780000861704740F00400FAE700000000FA0535
:100790000CED00E080FFFF1FA548016841F001015A
:1007A00001604168A34A114041600168A24A1140BA
:1007B0000160016821F480210160416821F4FE019B
:1007C00041604FF41F018160704799490A6822F423
:1007D00080320A600A6822F480220A60B0F5803F05
:1007E00007D0B0F5802F03D1086840F4A02008603E
:1007F0007047086840F48030F9E703460020590943
:100800008B4A01290AD002290AD0516A03F01F023B
:10081000012393400B4200D0012070471168F5E797
:10082000116AF3E718B500204FF4A064009031205E
:10083000FFF7E3FF0099491C0091A14201D0002875
:10084000F5D03120FFF7D9FF002800D0012018BDD6
:10085000774A116821F0F80141EAC0001060704742
:10086000764908607047724B5A68084322F47C123C
:100870001043586070477149086670476C4A516868
:1008800021F003010143516070476948406800F05E
:100890000C007047664A516821F0F0010143516035
:1008A0007047634A516821F4E06101435160704729
:1008B0005F4A516821F4605141EAC00050607047BE
:1008C0005B4A0029517A01D0014300E08143517213
:1008D00070475A49C1F8D8007047554A516821F409
:1008E00040410143516070475149002281F8202066
:1008F00081F82020012802D0042802D1052081F8A7
:10090000200070474E490860704749490A6A02430F
:100910000A6270474A4944390860704730B5444A12
:100920005168484B11F00C0103D0042901D008296B
:1009300001D0036012E05168536801F470114FF068
:10094000020413F4803F04EB914102D053689B03EF
:1009500001D53D4B00E03B4B5943016051680F23EB
:1009600003EA1111394B5C5C0168E1404160546855
:10097000072505EA14241C5D21FA04F484605468F8
:1009800005EAD4241B5DD940C1605268032303EA01
:1009900092322E4B1B1F9A5CB1FBF2F1016130BD0C
:1009A000234A0029516901D0014300E0814351618C
:1009B00070471F4A0029916901D0014300E081433B
:1009C000916170471A4A0029D16901D0014300E0C2
:1009D0008143D1617047164A0029D16801D0014393
:1009E00000E08143D1607047114A0029116901D0AC
:1009F000014300E0814311617047114940390860AB
:100A000070470E49C86470470949C8717047084863
:100A1000416A41F0807141627047054A01460020F9
:100A200092680A4200D001207047014988727047DD
:100A3000001002400000FFF8FFFFF6FE00004242F7
:100A40008004424200127A0000093D001C00002090
:100A500000B585B06846FFF761FF019805B000BD9D
:100A600010B5FFF7F5FF11490A6842F080720A607D
:100A70000F4900224A600A6842F001020A60BDE89C
:100A8000104000F075B80A484068704710B5044639
:100A9000FFF7DEFF0021074A0B4605F029FF02465B
:100AA0000B462046002105F023FF10BDFCED00E0C1
:100AB000001000E040420F0010B500F0DFF80446DF
:100AC0001021694800F0D8F92046BDE8104000F038
:100AD000D9B8664910B500200860FFF7C1FFBDE82E
:100AE0001040E9E7FEE770B505460C000ED075B181
:100AF00000F0C4F8064610225B49284600F0C4FC0A
:100B0000304600F0BFF80020208070BDFEE70A20CC
:100B1000088070BD70B50C00054612D095B110214B
:100B200000F0A4FC102810D200F0A8F8064610220D
:100B300029464D4800F0A8FC304600F0A3F80020FC
:100B400005E0FEE70A20088070BD4FF47A7020802F
:100B500070BDFFF798BF7047020004D0434800689B
:100B600010B1002102E0FEE74FF4FA6111807047F6
:100B70003E490860704710B500F08BF8183810BD7A
:100B800010B500F086F8103810BD00F082B8F0B54E
:100B90000C0E0B0C0D0A0026354AD0F1FF378E41A2
:100BA0001BD24FF6FF76D0F1FF378E410AD26FF09D
:100BB0007F45D0F1FF308D4101D2105DF0BDD05C9A
:100BC0000830F0BDFF23D0F1FF308B4102D2505DE1
:100BD0001030F0BD505C1830F0BD4FF6FF740023AC
:100BE000241A8B4111D26FF07F440023241A8B41C9
:100BF00005D2000E40EA0120105C2030F0BD000C50
:100C000040EA0140105C2830F0BD0023D0F1FF0421
:100C10008B4105D2000A40EA0160105C3030F0BD23
:100C2000105C3830F0BD08B100F036B808207047CD
:100C300008B100F031B81020704708B100F02CB8AE
:100C40002020704700B550EA01020BD0C243521C6D
:100C5000CB4343F1000310401940FFF798FFC0F168
:100C60003F0000BD402000BDDC1400202C0000200F
:100C7000F06A000872B6704762B67047EFF31080F2
:100C800072B6704780F31088704730BF704720BF3E
:100C90007047B0FA80F0704790FAA0F0B0FA80F098
:100CA000704790FAA0F07047A0F14101192902D9CC
:100CB0006138192801D80120704700207047A0F141
:100CC0004101192905D92039192902D930380928B3
:100CD00001D801207047002070476138192801D8D9
:100CE00001207047002070474138192801D80120A1
:100CF0007047002070473038092801D8012070471C
:100D0000002070473038072801D8012070470020A4
:100D10007047A0F13001092905D91139052902D9F7
:100D20006138052801D8012070470020704720282D
:100D300003D0092801D000207047012070472028E7
:100D40000BD00D2809D00A2807D00C2805D0092877
:100D500003D00B2801D000207047012070472038B5
:100D60005E2801D8012070470020704721385D2897
:100D700001D80120704700207047A0F120015E29B2
:100D800016D8202814D00D2812D00A2810D00C28EC
:100D90000ED009280CD00B280AD021391A2907D3E4
:100DA00020391A2904D330380A2801D3012070478A
:100DB0000020704741B2002901DB1F2803D97F289A
:100DC00001D00020704701207047A0F1410119298E
:100DD00000D82030C0B27047A0F16101192900D8B5
:100DE0002038C0B2704700B50B46FFF7F5FF02464A
:100DF0001846FFF7F1FF824201D1012000BD00201B
:100E000000BD0000FD48FE490246C0E90012002175
:100E10008160C160016141618161C1610162016301
:100E2000C162416200F148018163C1634FF4806196
:100E300001644164F3480260704710B500231C460A
:100E4000641C41EA0323042CFAD310F0030404D1F8
:100E500009E0521E00F8011B641C22B1042CF8D3D7
:100E600001E008C0121F042AFBD202E000F8011BB7
:100E7000521E002AFAD110BD0A460021DDE730B427
:100E8000814202D930BC00F0C5BD10441144401E5F
:100E9000491E431A042B28D300F0030301F0030476
:100EA000A34201D1012400E00024F4B1032B07D1B7
:100EB00009E05B1E11F8014900F801495BB2521EBE
:100EC0000AB1002BF5DAC01EC91E04E051F804393E
:100ED00040F80439121F042AF8D2C01CC91C04E0CF
:100EE00011F8013900F80139521E002AF8D130BC3E
:100EF000704770B5034662B16BB161B113441144E0
:100F0000012003F0030401F00305AC4205D10125E3
:100F100004E0012070BD002070BD0025DDB1BCB132
:100F200013F8015D11F8016DB54200D00020521E8A
:100F3000641E0128F0D1002AF1D109E053F8044DD4
:100F400051F8045DAC4200D00020121F01280AD1E4
:100F5000042AF3D207E013F8014D11F8015DAC4209
:100F600000D00020521E0128D6D1002AF3D170BD36
:100F700030B5C36BB3FBF2F402FB14340CB1121B9B
:100F800000E00022446C11448C4201D2002030BDAC
:100F90005D18611AC5631A444164104630BD10B52E
:100FA000B0FBF3F403FB140000B1181AB2FBF3F426
:100FB00003FB14240CB11B1B00E0002310441A4453
:100FC000491E02FB010010BD2DE9FC5F1F46140005
:100FD0008A46834600D101AC0020884E2060FFF78E
:100FE0004DFE009053465A460121D6F84480F06BDE
:100FF000FFF7D5FF054642F2E279404506D9009851
:10100000FFF740FEA5EB0800206012E0524659466B
:101010003046FFF7ADFF0600009807D0FFF732FE1D
:1010200042F2107038803046BDE8FC9FFFF72AFE80
:101030002560A7F800900020F6E72DE9F04116465C
:101040000D460446FFF71AFE6368996B01B96B4BB6
:10105000DF6B5C6CFFF716FE012D06D9B7FBF5F0D0
:1010600005FB107000B1281A241A42F2107030806B
:101070002046BDE8F0810A4601466048DDE7B8B188
:10108000614A0260002242608260C2600261426185
:101090008261C2610262826242630263C262426230
:1010A0008263C2630264426442F210700880704737
:1010B00042F21170FAE72DE9FF4F89B08A46DDE967
:1010C0001879044607B906AF002038604946204623
:1010D000FFF7D5FFB9F80010A1F51C50103859D111
:1010E0004848006890B10020DFF810810290FFF7B7
:1010F000C5FD0590BAF100000BD002460B98002602
:1011000013184048B3465B1E056848E042F2E77199
:101110003EE0D8F83C1003910423C34645461A46E6
:101120000C990398FFF73BFF03990490084408903B
:10113000DDE916230C99FFF732FF0090009904981F
:10114000464608440290D8F844100191884261D97B
:101150000598FFF797FDDDE901103CE0A86B5045CD
:1011600006D1D5F840C00B998C4501D12E4618E028
:10117000296C0144491E834213D3824203D98B4216
:1011800001D98A4209D80598FFF77CFD42F27F71A8
:10119000A9F800100DB0BDE8F08FAB46ED68002D4A
:1011A000DCD136B9C4E90EAA0B9820640B98264608
:1011B000606404231A46D8F83C000C99FFF7EFFE50
:1011C0000490D8F844100191884206D90598FFF799
:1011D00059FD01990498401A34E0F06B0890DDE95C
:1011E00016230C99FFF7DBFE0090716C0191884289
:1011F00010D90598FFF746FD08E00000EC14002028
:1012000048454150300000204E4F4E45DDE9000179
:10121000401A46E00C9804228000014601904046A6
:10122000FFF7A6FE039008B100201CE0D8F8444068
:101230000598FFF727FDBAF1000F07D00198A042EB
:1012400000D9001B386042F2E27054E00298F6E7E1
:10125000DDE916123046FFF78BFE90B1039941F895
:10126000280008F101000C9980468842F0D3A6427C
:1012700020D1C4E902B55FEA0B0016D0CBF80C40D0
:1012800015E0F56B746C0598FFF7FCFC0C98DDE934
:101290001623A0EB08012846FFF781FEA04200D9E3
:1012A000001B386042F2D87025E06E4804603DB102
:1012B000AC6005E07069C4E90460746100B1046168
:1012C0006948C4E900060898A06100990898084494
:1012D000401EE061039820620098A0621798606346
:1012E000169820630C98E0620C9860620598FFF7EE
:1012F000C9FC42F21070A9F800004BE770B50D462A
:101300000446FFF7BBFC646AFFF7BCFC42F21070B6
:101310002880204670BD70B515460446FFF7AEFC28
:10132000616A49B1E26A91420BD9FFF7ABFC42F224
:1013300095702880002070BDFFF7A4FC42F2DE709B
:10134000F7E7491E6162226A52F82140FFF79AFCD2
:1013500042F210702880204670BD70B514460E46CB
:101360000546FFF78BFCEA6A911B491E42F295760F
:101370008A4202D96A6A8A4204D9FFF783FC26802E
:10138000002070BD2A6A52F82150FFF77BFC42F220
:1013900010702080284670BD2DE9F04116460D469C
:1013A0000446FFF76BFCE76A626A8446BA4204D3DC
:1013B000FFF768FC42F2DD701EE04FF0000E1346AE
:1013C000206A04E050F82310A94205D05B1C9F421C
:1013D000F8D8BEF1000F03D050F8221040F82310C7
:1013E000D4E9080140F82150606A401C6062604600
:1013F000FFF748FC42F2107030803AE62DE9F041E8
:1014000015460E4604464FF0FF37FFF737FC0246FD
:10141000E16A606A884205D31046FFF733FC42F266
:10142000DD701CE04FF0000C05E0236A53F820301B
:10143000B34205D0401C8142F7D8BCF1000F09D05F
:101440000C1A1046641EFFF71DFC42F21070288033
:1014500020460EE61046FFF715FC42F28870288001
:10146000384606E630000020504F4F4C002201E085
:10147000401C521C18B103780BB18A42F8D31046B5
:1014800070474FF0FF31F1E730B5002811D089B136
:101490000346002405E0491C03F8015B641C4BB1C2
:1014A00041B10D780DB19442F5D3944201D200219F
:1014B000197030BD002030BD4FF0FF32E4E730B589
:1014C000002816D0B1B1002A13D0034601E05B1CFE
:1014D00010D01C78002CFAD104E0491C03F8015B01
:1014E000641C3BB131B10D780DB19442F5D30021AC
:1014F000197030BD002030BD4FF0FF32DFE7F0B58E
:1015000032B330B111B304460B46401C491C0025D0
:1015100008E0E9B108784042F0BD401C491C5B1C62
:10152000641C6D1C26781F78BE4204D11EB110B118
:1015300009B19542F1D395420AD0F4B2FAB294427D
:1015400001D0B01AF0BD1EB10028E2D00078F0BD85
:101550000020F0BD4FF0FF32D1E72DE9F0475FEA00
:10156000020A41D070B181B10446461C0F464D1CA1
:101570000078FFF72AFC81463878FFF726FC4FF009
:10158000000811E079B3087829E0007821E008F13B
:10159000010814F8010F6D1C761C7F1CFFF715FC69
:1015A00081463878FFF711FC814505D1217819B1C2
:1015B00016B10DB1D045EAD3D04515D04946814585
:1015C00003D0A9EB0000BDE8F0870800FBD026B1EE
:1015D0003078BDE8F047FFF7F8BB25B12878FFF772
:1015E000F4FB4042EFE7FFE70020ECE74FF0FF326B
:1015F000B3E710B5002812D081B1002303E0401CEE
:1016000003F101030BD004781CB1944201D08B424A
:10161000F5D38B4202D2E1B2914200D0002010BD3E
:101620000A464FF0FF31E4E730B5154604000FD00D
:1016300071B1491EFFF71AFF20180AD000E0401EC2
:10164000A04202D00178A942F9D10178A94200D084
:10165000002030BD0A464FF0FF31E5E730B50028E5
:1016600003D00BB1044607E0002030BD8D4200D10D
:1016700022705B1E641CF8D02578002DF5D0002B5D
:10168000F4D130BD4FF0FF33E8E72DE9F0418C464F
:10169000060032D0BCF1000F2FD072B3501C01D025
:1016A000511C01E04FF0FF310D4611463046FFF767
:1016B000DDFE044629466046FFF7D8FE050014D03B
:1016C000A5421AD8301911D01CEB05000ED0671BAB
:1016D0000024301980462A466146FFF710FF0100BA
:1016E00006D00020641C28B106E03046BDE8F08139
:1016F0000120F7E7BC42ECD909B10020F6E74046EB
:10170000F4E74FF0FF32C0E72DE9FF5F074611987D
:101710000E9D1446894600286CD00026B246B9F1C9
:10172000000F00D10126A01E232800D3012615B3E7
:101730002846FFF714FB01281CD1302D1BD0A5F142
:101740003000C1B20F98012802D0A5F1410001E09C
:10175000A5F16100C0B20A2C02D8A14206D307E06D
:101760000A2903D3A4F10A01884201D2012000E032
:10177000002000B10126119A56BBB846012003E0B3
:10178000B8FBF4F8401CC0B2A045F9D20399012976
:1017900000D0002100EB010CCC4518D84FF0000B15
:1017A0004B46484500D318464DB1A9EB0000401AFE
:1017B0004B4610F0FF0F04D0302D04D001E0084458
:1017C000C3B2002000E0012082460EB901E00126EC
:1017D0004B461099D01809B1002101700021401E1C
:1017E00004E056B13F2200F80129491C9942F8D380
:1017F0009EB3002004B0BDE8F09F27B919B1039A49
:10180000012A16D024E0B7FBF4F204FB1272D2B224
:101810000A2A01D2303207E0DDF83CC0BCF1010FEA
:1018200001D0373200E05732B7FBF4F700F8012956
:10183000DBE75AEA0B0205D0BAF1000F08D05A1EB6
:10184000914205D12D2200F801294FF0010BCCE780
:10185000002DCAD000F80159C7E7FFE71198C9E782
:101860007FB50DF1200C9CE870008DE87800002316
:10187000FFF74AFF04B070BD2DE9FF411C46DDE9CA
:101880000B650A9F002802DA4042012300E0002392
:10189000CDE90047CDE90265FFF736FF04B025E743
:1018A0002DE9FF5F1E4615465FEA0109824601D118
:1018B0000DF10809C9F800A00E9808B903A80E9008
:1018C00000210170BAF1000003D0012D01D0242DB8
:1018D00001D900208EE70446007801E014F8010FDA
:1018E000FFF72DFA0128F9D020782B2803D02D28D6
:1018F00005D0002007E04FF0000B641C04E0012E2F
:1019000000D1641C01208346019425B1082D11D01B
:10191000102D22D112E02078302801D00A251CE0B9
:1019200014F8010F582803D0782801D0082514E0B6
:1019300010250CE0207830280ED00EE020783028DA
:101940000BD114F8010F582801D0782805D1607800
:10195000FFF7DFF9012800D1641C0026B04600968D
:1019600027783846FFF7ABF9012824D13846FFF72E
:10197000C2F901280CD03846FFF7AFF9012809D089
:10198000373FF9B2A94216D2B8F1000F04D00EE0E9
:10199000303FF6E7573FF4E71D4850F82500B042C6
:1019A00003D306FB05168E4201D24FF001080098C2
:1019B000641C0028D4D0B8F1010F01D14FF0FF36DC
:1019C0000198844202D0C9F8004001E0C9F800A0A3
:1019D0000E99304681F800B00CE708B5002300935B
:1019E000FFF75EFF08BD1CB501AB00930123FFF7B5
:1019F00057FF9DF804204FF0004122B1884200D2E9
:101A0000414208461CBD8842FCD36FF000401CBD1B
:101A1000F06B0008002800D17047002900D1704702
:101A2000002A00D170472DE9F81F00F0030301F0F0
:101A30000304A34211D1C3F1040303F00303012BF8
:101A40001DD3012A00D2F2E011F8014B00F8014B3E
:101A5000A3F10103A2F10102F1E700F0010301F09B
:101A60000104A34200D094E0012B44D311F8014BB0
:101A700000F8014BA3F10103A2F10102F4E7B2F572
:101A8000B47F26D3B1E8F81FA0E8F81FB1E8F81F2B
:101A9000A0E8F81FB1E8F81FA0E8F81FB1E8F81FA8
:101AA000A0E8F81FB1E8F81FA0E8F81FB1E8F81F98
:101AB000A0E8F81FB1E8F81FA0E8F81FB1E8F81F88
:101AC000A0E8F81FB1E8F81FA0E8F81FA2F5B4726B
:101AD000D5E7282A06D3B1E8F81FA0E8F81FA2F13D
:101AE0002802F6E7042A06D351F8043B40F8043BE9
:101AF000A2F10402F6E7202A42D331F8023B20F893
:101B0000023B31F8023B20F8023B31F8023B20F85F
:101B1000023B31F8023B20F8023B31F8023B20F84F
:101B2000023B31F8023B20F8023B31F8023B20F83F
:101B3000023B31F8023B20F8023B31F8023B20F82F
:101B4000023B31F8023B20F8023B31F8023B20F81F
:101B5000023B31F8023B20F8023B31F8023B20F80F
:101B6000023B31F8023B20F8023B31F8023B20F8FF
:101B7000023B31F8023B20F8023BA2F12002BAE717
:101B8000022A06D331F8023B20F8023BA2F10202FE
:101B9000F6E7102A42D311F8013B00F8013B11F897
:101BA000013B00F8013B11F8013B00F8013B11F843
:101BB000013B00F8013B11F8013B00F8013B11F833
:101BC000013B00F8013B11F8013B00F8013B11F823
:101BD000013B00F8013B11F8013B00F8013B11F813
:101BE000013B00F8013B11F8013B00F8013B11F803
:101BF000013B00F8013B11F8013B00F8013B11F8F3
:101C0000013B00F8013B11F8013B00F8013B11F8E2
:101C1000013B00F8013BA2F11002BAE7012A06D30A
:101C200011F8013B00F8013BA2F10102F6E7BDE823
:101C3000F81F704770470000F54CF64DFFF71EF88F
:101C40002168491C21602968491C2960FFF71AF89E
:101C500004F084FDF2E700B5ED4A89B0002111607F
:101C60000B2205910691CDE90720EB48EB4AEC4B9E
:101C7000006812681B680292CDE903013F20CDE99C
:101C800000030023AFF24F02E6A1EB4803F053F844
:101C900009B000BD0020E94B024600EB400103EB18
:101CA0008101401C0A810A60C0B24A604028F4D316
:101CB000704710B5044604F057FDE14800220A21A0
:101CC0000270E0480270E0480270E0480260E048BC
:101CD0000260E0480270E0480270E0480270E048AC
:101CE0000260E0480260E0480260E0480270E048BC
:101CF0000068B0FBF1F0DF490860DF49086830B1E7
:101D0000DE48006818B1096804C0491EFCD1DC48EF
:101D10000260DC480260DC480260DC480260DC48AB
:101D20000260DC480260DC480260DC48027001F0BE
:101D300037FFFFF7AFFF204601F097F82088002813
:101D400047D1204601F0E3FA2088002841D12046FF
:101D500001F006FB208800283BD1204601F009FF56
:101D60002088002835D1204602F046FA2088002835
:101D70002FD1204602F0EEFC2088002829D12046F1
:101D800003F064FE2088002823D1204601F06CF97E
:101D9000208800281DD12046FFF75DFF20880028FD
:101DA00017D1204603F052FF2088002811D1204689
:101DB00002F05BFE208800280BD1204604F03EFC98
:101DC0002088002805D100F0AFFCBDE81040FFF7E7
:101DD00031BF10BD9B480078012805D1984908788B
:101DE000FA2801D2401C08707047964810B5007858
:101DF00001282DD1FEF742FF91490446087810B31F
:101E0000401E10F0FF0008701DD18F480078D0B937
:101E100001F0CFFE90490870884900EB400051F86E
:101E200020008B4908608949096888420BD050F826
:101E3000901F491C01609A480168491C016099493A
:101E40004FF0805008602046BDE81040FEF71ABFF2
:101E500010BD7B4810B50078002826D17A4800785C
:101E6000002822D1FEF70AFF044601F0A2FE7A49BB
:101E70000870724900EB400051F820007449086076
:101E80007249096888420BD050F8901F491C0160C4
:101E900083480168491C016082494FF08050086006
:101EA0002046BDE81040FEF7EDBE10BD664810B5F7
:101EB0000078012803D1FEF7E6FD6949086010BDEE
:101EC00070B504465E48007810B146F6625019E0DD
:101ED0005C480078012802D045F6896012E05A4D2E
:101EE0002878FA2802D345F209200BE0FEF7C6FE57
:101EF00006462878401C2870FFF7D8FF3046FEF7CA
:101F0000C1FE0020208070BD4F4810B50078002829
:101F10000ED1FEF7B8FD52490968401A51490A68C6
:101F2000824200D2086050490A68824200D20860AA
:101F300010BD70B504464248007810B146F66550B1
:101F400023E040480078012802D045F689601CE073
:101F50003D4E307870B1FEF791FE05463078401E58
:101F600010F0FF00307008D02846FEF78BFE46F6D2
:101F700063500AE046F6645007E0FFF7C5FF2846C5
:101F8000FEF780FEFFF765FF0020208070BD2DE981
:101F9000F04116460C460746FEF770FE3349002511
:101FA000012F01D00D7001E001220A7031490CB1FE
:101FB0000C6005E02E4A0A231268B2FBF3F20A60B5
:101FC000FEF760FE3580BDE8F08110B5018900297B
:101FD00014D0012912D00024022907D0D0E900131F
:101FE000CA681461C1E90343D96005E0D0E9001271
:101FF000C1E90342C2E90314C0E9002110BD70B574
:1020000004460F48007810B148F2D1407BE04BE025
:1020100058000020BC000020986C0008946C000858
:10202000906C000875432F4F532D4949492049644E
:102030006C65205461736B00C42D0020582F002064
:102040005C0000205D000020A4000020FC000020B7
:10205000000100208A0000208B0000208C0000205E
:10206000980000209C000020A0000020AC00002070
:10207000E46C0008A8000020BC6C0008B86C0008E4
:102080003C000020400000204400002048000020C8
:102090004C0000205000002054000020DA000020F6
:1020A000D000002004ED00E0F748007810B146F6BB
:1020B000635028E0F5480078012802D046F67B10EE
:1020C00021E0FEF7DBFD0646F148F249007800EB1F
:1020D000400001EB80052889022805D23046FEF732
:1020E000D1FD46F67A100EE02846FFF76EFF28680D
:1020F000416D09B9E849096881653046FEF7C2FDBE
:10210000FFF7A7FE0020208070BD70B5E34D0446A8
:10211000287818B145F68A60208070BD01F049FD2D
:10212000DF490870DA490870DA4900EB400051F8DD
:102130002000DC490860DC4908600120287004F0B8
:102140008BFC43F69920E7E70021018047F25C60B1
:10215000704738B14268C1F8C02081688968096A4F
:10216000C161704791F83400022803D0072803D0DA
:10217000CEA002E0CEA000E0CFA0C1F8C000704722
:1021800030B58A68002592F8374002891AB1521C8E
:10219000028102680BE0012202814D600D60016046
:1021A00014E0936893F83730A34203D85268002AAA
:1021B000F7D107E032B1136853B1C1E90032596079
:1021C000116030BD4D6042680A605160416030BDB1
:1021D0001160C1E90052016030BD10B5C287002412
:1021E000234601630EE04B6041F8103B641C41F84C
:1021F000103BA4B241F80C3C21F8083C41F8043CE7
:1022000041F8180C9442EED310BD70B5044690F816
:102210003700A04900EB400001EB8001D4E9032026
:10222000002540B10B895B1E0B81C26092B1106129
:102230002561E56070BD2AB10889401E08811561DD
:102240000A60F5E70D810D604D6094F8370001F0EC
:10225000CEFCEDE74860EBE738B50446022531B126
:102260006B46022203F02BFDBDF8000028B184F874
:1022700036502046FFF7C9FF38BD032084F83600EA
:10228000F7E72DE9F041884D07460C4628680026FF
:10229000194680F8342080F83560FFF7DDFF64B11F
:1022A000FC6004F10806012239462868FFF795FF13
:1022B00039463046FFF764FF02E02868C6870663A8
:1022C00020462968BDE8F04143E710B502890024A3
:1022D000012A0BD00A6862B14B6873B153601A606F
:1022E0000289521E02814C600C6010BD0460446083
:1022F000F6E74A6814600260F2E754604260EFE774
:1023000070B50646C58F046B07E0E06821460830CB
:10231000FFF7DBFF6D1EADB22034002DF5D100209C
:10232000F087306370BD10B50B6BC98F08E0DC68B7
:10233000844202D1DA61186110BD491E89B220338E
:102340000029F4D110BD90F83710524A01EB410139
:1023500002EB810100230A8942B1521C0A810A68FA
:10236000C0E903230A6810610860704701220A81EE
:10237000C360036108604860704790F83710454AB1
:1023800001EB410102EB810100230A893AB1521CA1
:102390000A81C3604A680261D060486070470122C8
:1023A0000A81C36003610860F7E710B5044690F83E
:1023B000370001F00EFC364994F83700097888425E
:1023C000204602D1BDE81040D7E7BDE81040BAE78B
:1023D00010B5044603F064FB94F83610490703D4A3
:1023E0002046BDE81040E0E710BD2DE9F04106466B
:1023F00091F8360000270C4615464FF001080828D2
:1024000035D2DFE800F03434040434341A1A94F876
:102410003400032803D121463046FFF784FFE765E7
:10242000A4F86070256416B12046FFF769FF2046C6
:10243000FFF7CEFF84F8367015E094F834000328D7
:1024400003D121463046FFF76EFFE765A4F86070C0
:10245000256416B12046FFF753FF204603F020FB0A
:10246000042084F8360084F8358084F83470AAE5B6
:1024700014A2C1F8C020816811B18968096A00E01E
:1024800010A1C16170470000A4000020AC00002032
:102490008A000020582F0020A80000205D000020A6
:1024A0008B00002000010020FC0000202000000024
:1024B0005461736B205100005461736B2053656D40
:1024C000000000002000000070B580F83710C58FB4
:1024D000046B0FE0E668308A0836012807D92146E8
:1024E0003046FFF7F2FE21463046FFF749FE6D1EEB
:1024F000ADB22034002DEDD170BD002101604160EE
:102500000181BFE70289521C028102684A600022F1
:102510000A60026802B1116001600289012AB1D12A
:102520004160AFE710B50B6BC98F08E0DC688442EF
:1025300002D1DA61186110BD491E89B22033002929
:10254000F4D110BD2DE9F0410C4691F8361000256C
:1025500002261746082933D2DFE801F0323204049C
:102560003232191994F83410032903D13A4621461E
:10257000FFF7D8FFE565A4F8605020462764FFF711
:10258000BFFE2046FFF724FF84F8365014E094F88D
:102590003410032903D13A462146FFF7C3FFE5650E
:1025A000A4F860502046276403F07AFA2046FFF72B
:1025B000A7FE042084F8360084F8356084F834508F
:1025C00001E570B50C6B049DC98F0AE0E668864290
:1025D00004D1C4E904022383E56170BD491E89B2B8
:1025E00020340029F2D170BDF8B50C46054691F8AB
:1025F00036100026069808293BD2DFE801F03A3A67
:1026000004043A3A202094F83410032911D0E265EA
:10261000A4F86030206435B12046FFF771FE2146F2
:102620002846FFF725FF2046FFF7D2FE84F83660E4
:102630001BE0009021462846FFF7C3FFEBE794F824
:102640003410032916D0E265A4F8603020642046D7
:1026500003F026FA35B12046FFF752FE2146284600
:10266000FFF706FF042084F8360084F8356084F80C
:102670003460F8BD009021462846FFF7A2FFE6E748
:1026800010B5FEF7FBFA1F4A002111701F4A1E49C0
:10269000116051F8902F521C0A601D4A1168491CA4
:1026A00011601C4A4FF080511160BDE81040FEF7E8
:1026B000E9BA70B5054618480078012820D1FEF720
:1026C000DDFA04462868B0B11449884213D0816D00
:1026D00011B1491E81650ED1288902280BD31048FB
:1026E000007840B92846FFF770FC2868416D09B9A9
:1026F0000C49096881652046BDE87040FEF7C2BA02
:1027000070BD00008B000020882E002000010020FA
:10271000D000002004ED00E0AC000020C42D00201B
:10272000A4000020A8000020704700000023FF4AFA
:10273000FDA14361C161116819B1816148611060F7
:1027400070478361FBE72DE9F0410446F848904665
:102750000F4600781D4610B142F6E16025E014B343
:10276000FEF78CFAF34E3178491C3170FEF78AFA85
:10277000F148C4E900070027C4E9088704F108000C
:10278000FFF7BBFE2046FFF7D1FFEC490888401C4D
:102790000880FEF773FA3178491E3170FEF772FA3D
:1027A0002F80BDE8F08145F6C3501880F9E7E44971
:1027B00002C0E4A102C000218161FFF79EBED0E902
:1027C000052100232AB151B191614A6183614361BE
:1027D0007047D64A116001B14B61836170479361C4
:1027E000F5E72DE9F05F8046D14814468946007828
:1027F00010B143F2C92013E0B8F1000F06D0080071
:1028000007D0012905D045F6256009E045F6C350FB
:1028100006E0C949D8F80000884205D045F6C45002
:1028200010800020BDE8F09FFEF728FAC14F3978EC
:10283000491C3970FEF726FAB8F810505FEA090013
:10284000DFF8F8B2DFF8049308F10806AA460AD0C8
:10285000012842D0FEF712FA3978491E11F0FF0123
:1028600039705DD064E05FEA0A0008D0FEF706FA2E
:102870003978491E11F0FF0139701FD026E040461B
:10288000FFF79DFFBBF800104046491EABF8001053
:10289000FFF78DFFFEF7F2F93978491E11F0FF01BD
:1028A000397007D1B9F8001021B1FEF7EBF9FFF745
:1028B000E7FE01E0FEF7E6F900200BE0B9F80010B2
:1028C00021B1FEF7DFF9FFF7DBFE01E0FEF7DAF9F1
:1028D00047F25F1020805046A4E7FEF7D4F8814607
:1028E00007E030684A4681684046FFF72BFE6D1EC0
:1028F000ADB2002DF5D14046FFF761FFBBF80010E7
:102900004046491EABF80010FFF751FFFEF7B6F93D
:102910003978491E3970FEF7B5F9FFF79AFACBE717
:10292000B9F8001021B1FEF7ADF9FFF7A9FE01E0FB
:10293000FEF7A8F945F62560CCE730B4844C029D3B
:10294000246844F8802F0022238162602B4630BC2B
:102950000122FFF796BC2DE9FF4F05468BB0744866
:10296000DDE9186400781F46894610B146F2AE10C2
:1029700007E1ADB148F20101781A8F4229D019DC84
:1029800040F20111A7F201108F4222D00BDC012F7F
:102990001FD0022F1DD0042F1BD0082F16D118E0F6
:1029A00045F6C350EDE0012813D0032811D00728C5
:1029B0000CD10EE0B0F5807F0BD0F4DDA0F5807077
:1029C000013806D0022804D0062802D045F625603A
:1029D000D7E059492868884202D045F6C450D0E073
:1029E000F80501D5012000E0002080464FF0000BE3
:1029F0000EB1C6F800B007F00F010991FEF73EF9DD
:102A000009994C4A4FF0010E012934D0022938D0DF
:102A1000042902D008296ED123E0296A01EA090AB3
:102A2000CA4524D011E021EA0A0135E0484A12687B
:102A3000C2F884A00EB1696A3160FEF723F9A4F8E8
:102A400000B050460FB0BDE8F08F390426D5FEF730
:102A500019F946F2B01094E0FEF714F946F6635007
:102A60008FE0296A01EA09035FEA030AEDD0B8F1B1
:102A7000000FDBD0D7E7296A29EA010ACA4506D048
:102A8000E3E7296A29EA01035FEA030ADDD0B8F126
:102A9000000FCBD041EA0A012962C7E7117800296B
:102AA000DAD1924682F800E0FEF7ECF80D9800903B
:102AB0003B464A46294601A8FFF73FFFFEF7DEF8EE
:102AC0009AF80010491E8AF80010FEF7DBF8FFF7AD
:102AD000C0F9FEF7D3F81E4B1A6892F8351059B1B9
:102AE000012937D0022945D003293BD0FEF7CAF887
:102AF00046F62E6045E014E00EB1116C3160A4F88A
:102B000000B019685F46B8F1000FD1F8846041D079
:102B1000099901293BD0022939D0042934D0082948
:102B200032D0FEF7AFF851E720000000740000201B
:102B30005C000020A4000020464C414778000020A3
:102B40004E4F4E453F464C41470000006800002074
:102B5000FC0000200EB1116C3160FEF793F846F2D4
:102B6000A9100EE00EB1C6F800B0FEF78BF847F2E0
:102B7000D92006E00EB1116C3160FEF783F845F6FE
:102B8000C250208000205DE7296AB14301E0296A34
:102B900031432962FEF776F82780304652E72DE967
:102BA000F05F8046B4480F461446007810B146F2F4
:102BB000AA1012E0B8F1000F0DD04FF4807A77B16F
:102BC00057450CD0B7F5004F09D0B7F5014F06D0E7
:102BD00045F6256001E045F6C350108021E0A74985
:102BE000D8F80000884202D045F6C450F5E7FEF759
:102BF00045F8B8F8101008F1080569B1DFF88092BF
:102C000099F80020521C89F80020FEF73BF80026B6
:102C1000FDF739FF834610E0FEF734F846F2AB10BB
:102C200020800020FEE528685A4681684046FFF76C
:102C3000DCFB761CB6B2574502D128890028F2D1B8
:102C4000FEF71CF899F80020521E89F80020FEF7C4
:102C500019F8380401D4FFF7FCF800202080304632
:102C6000E0E570B504468448007820B146F2AE1025
:102C70002080002070BDFEF701F882490968D1F874
:102C80008450FDF7FFFF00202080284670BD70B5FE
:102C90000025C0F8841080F8355080F83450044680
:102CA000026490F8360008280ED2DFE800F00D0D1F
:102CB00004040D0D0A0A2046FFF78AFB84F83650FB
:102CC00002E0042084F836002046BDE87040FFF79B
:102CD00017BB2DE9F0479A4690460D460446089EDC
:102CE000FDF7CCFF01465FEA080022D0012807D09B
:102CF000B0F5004F1DD06FF4004218EB020F12D157
:102D0000206AA843C4E9080A208A04F108054FF0A4
:102D1000000988B15A4F3878401C38700846FDF7D2
:102D2000B1FF2D6841E00846FDF7ACFF45F6256090
:102D30005FE0206A2843E5E70846FDF7A3FFA6F811
:102D40000090206ABDE8F08790F888106D6801F067
:102D50000F01012918D002291ED004290AD0082900
:102D60000DD0FDF78BFF3978491E11F0FF01397046
:102D700033D03AE0216AD0F88020114009E0216A7E
:102D8000D0F8802011400BE0D0F88010236A0A466A
:102D900099438A4205D007E0D0F88010226A914317
:102DA00011B15246FFF773FF15B1A8680028CBD1C7
:102DB000FDF764FF3978491E3970FDF763FF5FEA5C
:102DC000084001D4FFF745F8FDF758FF246AFDF7E6
:102DD00059FFA6F800902046B4E72B49098821B195
:102DE000FDF750FFFFF74CFC01E0FDF74BFF43F60A
:102DF000FF2030800020A5E72DE9FF4115468846D9
:102E000006001C460DD07DB1012D0DD0B5F5004F4B
:102E10000AD06FF40040C54206D045F62560188000
:102E200019E045F6C350FAE7144F3068B84202D0B3
:102E300045F6C450F3E7FDF726FE03460E4800783A
:102E400060B1CDE90234CDE9008500231A46314650
:102E5000384600F01FF8002004B0A2E42A4641469C
:102E600030460094FFF735FFF6E7084A002111606D
:102E7000074A1180018070475C000020464C4147A2
:102E8000A4000020FC000020680000207400002046
:102E9000780000202DE9F05F1E46DDE90AAB904680
:102EA0000F4681460D9CFDF7E9FEA049A04A054664
:102EB0000888128890422BD2401C80B208809D491D
:102EC0000A88824200D208809B4A1068C0F80090AD
:102ED000C0E902780682C0F814A0A0F818B00C99D6
:102EE000C1614068106095480121018194490160E9
:102EF0004160002000F06DFE9248007808B19249D0
:102F00000870002020802846BDE8F05FFDF7BABEBB
:102F10008E480188491C018044F25360F2E73EB5B7
:102F20008B4C8C4A02AB206801688D1A914245D0C7
:102F300015DC894A89182DD0884A891822D0884AF8
:102F4000891832D0874AD14208D1C169CDE900132E
:102F5000038B028AC168806802F088F93EBD82490D
:102F600069181DD0814A891823D0814AD142F5D1F0
:102F7000C169CDE90013038B028AC168806801F042
:102F800091F83EBD0093028BC36941698068FFF7E9
:102F9000A0FE3EBD018BC269806801F016FB3EBDFC
:102FA0008068194602F04BFA3EBD018BC269806809
:102FB00022E08068194602F0B8FC3EBD62485F49D5
:102FC000007800EB400001EB8000FFF772FB206807
:102FD00002AB0021C269674802F094FB66490868A9
:102FE000401E0860E9D1654800680860FDF74BFDA8
:102FF000024602AB0021624802F084FB3EBD614FF5
:103000004A4C0025DFF84881FDF738FE0646208847
:10301000E8B13046FDF736FEFDF735FD0646FFF711
:103020007EFFFDF730FD3968801B814200D2386099
:10303000FDF724FED8F800205268C8F80020218847
:10304000491E2180FDF71EFE002DDDD0D9E73B494A
:10305000002008810860486000F0C9FD3046FDF797
:1030600011FEFEF7F6FECCE7F0B53849464D89B0C3
:1030700000240C80296831B12D4E3188022905D2F7
:1030800044F2546135E044F2526132E03D4900239C
:103090003E4F0C60296801F1200210E041F8087BE6
:1030A0005B1C41F8084B9BB241F8044C21F8104BD3
:1030B00041F80C4C21F8084C41F81C2C2032B6F891
:1030C00000C06345EAD32A6841F81C2C1A490A60FB
:1030D0001F490A6015492E4A0C8016490C80116858
:1030E00051B12C492C4D0B682D68AB4207D244F2EC
:1030F0005661018009B0F0BD44F25561F9E7032340
:1031000005940694CDE90730086824491268002325
:103110000968CDE903040094CDE90121AFF2211241
:103120001FA1074801F007FEE4E700006800002047
:10313000886C00086A00002060000020582F0020E2
:10314000882E00208A0000208C0000206C000020C7
:10315000640000205449434BADBAB2BE0DF90BFADE
:10316000F2F8F7FF0006F6FF00F7FDF700FFEFFFAC
:1031700003FE0FFE1C330020F8000020F4000020A6
:10318000E033002070000020A06C00084E4F4E4538
:10319000A86C0008B06C0008E06C0008AC6C00087B
:1031A00075432F4F532D494949204953522051759A
:1031B000657565205461736B00000000574B002259
:1031C0008261196819B1C161886118607047C26174
:1031D000FBE72DE9F05F04465148DDE90A75007808
:1031E000984616468B4610B145F2B96014E045F298
:1031F000BB615EB1B8F1020F01D2481C0CE045F290
:10320000C160042F08D316F0030F02D02980BDE857
:10321000F09F17F0030F01D02880F8E7A8F1010113
:103220008BB23246002104E0D0191060491C0246DE
:1032300089B29942F8D34FF0000AC2F800A0FDF716
:103240001DFDDFF8E09099F80010491C89F8001086
:10325000FDF718FD344884E84108E660A4F81480BE
:10326000A4F8128027822046FFF7A8FF2F48018884
:10327000491C0180FDF702FD99F80010491E89F8EC
:103280000010FDF7FFFCA5F800A0C0E770B5040032
:103290000D460ED0FDF7F2FCA18A71B1E668491E19
:1032A0003268E260A182FDF7EDFC00202880304604
:1032B00070BD45F2BF60088004E0FDF7E3FC45F215
:1032C000C2602880002070BD70B50E46040015460F
:1032D0000BD06EB1FDF7D2FCA18A628A91420BD36A
:1032E000FDF7D0FC45F2BA600FE045F2BF6001E0A7
:1032F00045F2BE60108070BDE1683160E660A18A71
:10330000491CA182FDF7BEFC0020288070BD034A45
:1033100000211160054A1180018070477C00002067
:103320005C000020A40000204D454D2080000020BE
:1033300010B5491E8CB2002100F110020B4608E0C6
:10334000E0E80223491C20F8083B89B240F8043C1D
:103350001032A142F4D3036043600381C36010BD07
:1033600070B5524D0446286880B1514E308880B106
:1033700081B22868FFF7DCFF4E4829680160318878
:1033800081800021C1800181218070BD45F21E70C5
:1033900001E045F21D70208070BD10B5428992B1E8
:1033A000444903680C681C6043680B60CB884489FF
:1033B0001B1BCB808B88448923448B800021418157
:1033C000818101604160104610BD01810021418171
:1033D0008181016041607047F0B544890025CCB11E
:1033E0004468278966680F800AB1E1681160216826
:1033F0004160B9B14189491E41812E48016821606F
:1034000004608188491C8180C188491EC1801D805B
:103410003046F0BD0D8002B1156046F29250188022
:103420000020F0BD05604581E7E7F0B54489DDE99E
:1034300005E60589AC4202D346F293501EE01D4DCD
:10344000AF88CFB12C687F1ED4F800C0C5F800C08B
:10345000AF80EF887F1CBFB2EF80B5F808C0BC45D5
:1034600000D22F814789002557B1DB060CD40368B1
:103470001C60256004600AE045F21D703080F0BDDC
:1034800004600123446004E043682360446043898E
:103490005B1C438187899BB29F4200D2838161601C
:1034A0002281C4F80CE03580F0BD0000C86C000833
:1034B0008A6C00084C2F00200023FD4AFBA14361C9
:1034C000C161116819B18161486110607047836101
:1034D000FBE72DE9F0410446F6480F461546007813
:1034E00010B142F6E1602AE03CB3FDF7C7FBF24EB3
:1034F0003178491C3170FDF7C5FBF048C4E900077D
:103500000027276284F825704020A76284F82400F1
:1035100004F10800FEF7F1FF2046FFF7CDFFE84970
:103520000888401C0880FDF7A9FB3178491E3170DE
:10353000FDF7A8FB2F80BDE8F08145F6C350108051
:10354000F9E7E04902C0E0A102C0002181614177B2
:10355000016240210177FEF7D0BFD0E905210023A9
:103560002AB151B191614A61836143617047D04A88
:10357000116001B14B61836170479361F5E72DE9FB
:10358000F05F0746CB480E461446007810B143F270
:10359000C92008E02FB146B1012E06D045F62560BE
:1035A00001E045F6C3501080A4E0C4493868884261
:1035B00002D045F6C450F6E7FDF760FBDFF8F8925D
:1035C00099F80020521C89F80020FDF75BFB3D8A2A
:1035D000DFF8FCA207F10808AB4666B1012E48D01F
:1035E000FDF74CFB99F80010491E11F0FF0189F816
:1035F000001079D0A9E0BBF1000F0AD0FDF73EFB27
:1036000099F80010491E11F0FF0189F8001020D030
:1036100027E03846FFF7A1FFA9480188491E01802D
:103620003846FFF78EFFFDF729FB99F80010491E79
:1036300011F0FF0189F8001007D1BAF8001021B18C
:10364000FDF720FBFFF71CF801E0FDF71BFB002056
:103650000BE0BAF8001021B1FDF714FBFFF710F8EA
:1036600001E0FDF70FFB47F25F1020805846BDE8F0
:10367000F09F3E6A16B396F8370097F824108842F8
:103680001CD096F8360008281CD2DFE800F00411A0
:103690001414111114143046FEF7B7FD97F82400E6
:1036A00086F8370000F095FA3046FEF766FE05E032
:1036B00086F8371002E03046FEF706FFFDF7E3F923
:1036C000064622E0FDF7DAFA99F80010491E11F0DB
:1036D000FF0189F8001008D1BAF8001029B1FDF7F0
:1036E000D1FAFEF7CDFF02E027E0FDF7CBFA46F670
:1036F0002D6020800020BAE7D8F8000032468168AB
:103700003846FEF71FFF6D1EADB2002DF4D13846CE
:10371000FFF723FF6A480188491E01803846FFF7FA
:1037200010FFFDF7ABFA99F80020521E89F800202F
:10373000FDF7A8FAFEF78DFB89E7BAF8001021B172
:10374000FDF7A0FAFEF79CFF01E0FDF79BFA45F6B6
:1037500025608AE72DE9F04F0646564889B01C4699
:103760000078129D17468B4610B146F2AE10C9E0A4
:1037700036B147B1B7F5004F05D045F62560C1E039
:1037800045F6C350BEE04D493068884202D045F648
:10379000C450B7E04FF000080CB1C4F80080FDF74A
:1037A0006DFA96F825104B4B012281B19A46D6F856
:1037B00020C01B689C451CD1491C86F825100CB103
:1037C000B16A2160FDF75EFA45F282709AE01968ED
:1037D000316291F8371086F8241086F825200CB154
:1037E000B16A2160FDF74EFAA5F8008009B0BDE886
:1037F000F08F390404D5FDF745FA46F2B01081E0A8
:103800002D490B7823B1FDF73DFA46F6635079E078
:1038100089460A70FDF736FA376ADAF8000097F839
:10382000372090F837108A421ED997F836000828BA
:1038300052D2DFE800F0041316161313161638469A
:10384000FEF7E3FCDAF8000090F8370087F837005D
:1038500000F0BFF93846FEF776FD05E087F837102F
:1038600002E03846FEF730FE5B46042231466846E9
:10387000FEF707FDFDF702FA99F80020521E89F8BD
:103880000020FDF7FFF9FEF7E4FAFDF7F7F9DAF8A3
:10389000002092F8351041B101293BD0022948D0CF
:1038A00003293DD046F62E613FE02DE020000000C8
:1038B000840000205C000020A40000204D555458D6
:1038C000880000204E4F4E453F4D5554455800004E
:1038D00068000020FC000020FDF7D0F999F80010E6
:1038E000491E11F0FF0189F8001007D1A449098889
:1038F00021B1FDF7C7F9FEF7C3FE01E0FDF7C2F9FC
:1039000046F62D60288071E70CB1116C2160A5F896
:1039100000800BE00CB1116C216046F2A91104E0AB
:103920000CB1C4F8008047F2D9212980FDF7AAF92B
:103930005CE70CB1116C216045F6C251F5E72DE949
:10394000F05F80468F480F461446007810B146F26B
:10395000AA1012E0B8F1000F0DD04FF4807A77B1C1
:1039600057450CD0B7F5004F09D0B7F5014F06D039
:1039700045F6256001E045F6C350108021E08249FC
:10398000D8F80000884202D045F6C450F5E7FDF7AC
:1039900075F9B8F8101008F1080569B1DFF8EC9175
:1039A00099F80020521C89F80020FDF76BF90026D9
:1039B000FDF769F8834610E0FDF764F946F2AB10B5
:1039C0002080002053E628685A4681684046FEF76A
:1039D0000CFD761CB6B2574502D128890028F2D1D9
:1039E000FDF74CF999F80020521E89F80020FDF7E8
:1039F00049F9380401D4FEF72CFA00202080304623
:103A000035E62DE9F84F04465E4815468A460078AB
:103A100010B146F20E2011E03CB1080008D0B1F51B
:103A2000004F05D045F6256008E045F6C35005E097
:103A300055492068884204D045F6C4501080BDE83E
:103A4000F88FFDF71BF9DFF84891226AD9F80010CA
:103A50008A4204D0FDF716F945F281706CE0DFF878
:103A60002C8198F80020521C88F80020FDF70AF9F4
:103A7000FDF709F80646A06294F82500DFF800B1CA
:103A8000401E10F0FF0084F8250016D0FDF7F6F870
:103A900098F80010491E11F0FF0188F8001007D1B6
:103AA000BBF8001021B1FDF7EDF8FEF7E9FD01E0EC
:103AB000FDF7E8F845F283703EE0208A04F108073C
:103AC000E0B3D9F8000094F8243090F837209A42F7
:103AD00013D0FEF79AFBD9F8001094F8240081F86F
:103AE000370000F076F8D9F80000FEF746FCD9F868
:103AF0000000284990F837000870386800231A46FB
:103B00008168216291F8370084F82400012084F84C
:103B1000250020460096FEF767FDFDF7AFF898F800
:103B20000020521E88F80020FDF7ACF85FEA0A403A
:103B300001D4FEF78EF90020288080E7FFE70026F9
:103B4000266284F82560FDF799F898F80010491E60
:103B500011F0FF0188F8001007D1BBF8001021B167
:103B6000FDF790F8FEF78CFD01E0FDF78BF82E8055
:103B700065E7094A00211160084A118001807047F9
:103B8000680000205C0000204D555458A40000201F
:103B9000FC0000208A000020840000208800002013
:103BA00000201A4A014642F82010401C0228FAD38D
:103BB000704710B50024154802E02034E4B2001D1F
:103BC00001680029F9D00846FDF763F82044C0B227
:103BD00010BD00F01F0241090120C2F11F029040F8
:103BE0000A4A52F82130034342F82130704700F06E
:103BF0001F0241090120C2F11F029040034A52F8FE
:103C00002130834342F82130704700003400002007
:103C10000023F84AF6A14361C161116819B18161BD
:103C20004861106070478361FBE72DE9F04104466D
:103C3000F1481746884600781D4610B142F6E1600B
:103C40002CE034B347B3FDF719F8EC4E3178491C3A
:103C50003170FDF717F8EA48C4E90008394604F165
:103C60002000FFF7B2FB04F10800FEF746FC2046F7
:103C7000FFF7CEFFE3490888401C0880FCF7FEFFF1
:103C80003178491E3170FCF7FDFF00202880BDE827
:103C9000F08145F6C35001E046F294501880F6E7F3
:103CA00070B5044620300546FFF777FBD648206004
:103CB000D6A0606000212846FFF787FB04F10800CA
:103CC000BDE87040FEF719BCD0E9052100232AB1F8
:103CD00051B191614A61836143617047C54A116086
:103CE00001B14B61836170479361F5E72DE9F05FA6
:103CF0000746C14814468946007810B143F2C920EE
:103D00000BE047B1080045F6256B0AD0012908D021
:103D1000A2F800B002E045F6C35010800020BDE8D4
:103D2000F09FB7493868884202D045F6C450F4E79E
:103D3000FCF7A4FF82463D8A5FEA0900DFF8C492DF
:103D400007F10806A84608D001281FD05046FCF706
:103D500099FFA4F800B04046E1E75FEA080006D00A
:103D60005046FCF78FFF47F25F102080F3E738469C
:103D7000FFF7AAFFB9F800103846491EA9F800104D
:103D8000FFF78EFF5046FCF77DFF2DE0DFF86CB2A9
:103D900050469BF80010491C8BF80010FCF772FF8E
:103DA000FCF771FE824607E030685246816838466B
:103DB000FEF7C8FB6D1EADB2002DF5D13846FFF7FA
:103DC00083FFB9F800103846491EA9F80010FFF724
:103DD00067FFFCF753FF9BF80020521E8BF8002072
:103DE000FCF750FFFEF735F80020BEE770B505463A
:103DF00081480C46007810B14FF46C500BE045B18F
:103E00007F492868884208D045F6C45020800020A9
:103E100070BD45F6C3500880F9E7FCF72FFF774ED9
:103E20003178491C3170FCF72DFF05F12000FFF7B8
:103E3000B4FA0546FCF722FF3178491E11F0FF0164
:103E4000317007D17249098821B1FCF71BFFFEF7D9
:103E500017FC01E0FCF716FF00202080284670BD0B
:103E60002DE9F04F074689B06348DDE91254007828
:103E70001E4691468B4610B146F2AE1040E047B167
:103E800056B110000BD0B2F5004F08D045F62560B2
:103E900036E045F6C35033E046F2D52030E05849CD
:103EA0003868884202D045F6C45029E04FF0000837
:103EB0000DB1C5F80080FCF7E1FE009023462A46CC
:103EC000314607F12000FFF787FA8246208840B18B
:103ED0005FEA09400CD50098FCF7D4FE46F2B0101A
:103EE0000EE00098FCF7CEFE504609B0BDE8F08F1A
:103EF0004248017839B10098FCF7C4FE46F6635099
:103F000020800020F1E78146012089F80000009818
:103F1000FCF7B8FE5B460522394601A8FEF7B1F969
:103F2000FCF7ACFE99F80010491E89F80010FCF768
:103F3000A9FEFDF78EFFFCF7A1FE364A0346116885
:103F400091F8350060B1012815D002282AD0032845
:103F50004FF0000719D0A6F8008046F62E601BE04F
:103F6000B1F86000CF6D308015B11068006C28602A
:103F7000A4F8008011E00027A6F8008015B11068B1
:103F8000006C286046F2A91006E04046A6F80080C2
:103F900005B1286047F2D92020801846FCF772FE50
:103FA0003846A2E70027A6F8008015B11068006C1B
:103FB000286045F6C250EFE72DE9F05F80460E48D5
:103FC0000F461446007810B146F2AA1026E0B8F168
:103FD000000F21D04FF4807A17B3574520D0B7F5A2
:103FE000004F1DD0B7F5014F1AD045F6256015E0FA
:103FF00020000000900000205C000020A4000020B1
:1040000051554555940000204E4F4E453F510000FC
:1040100068000020FC00002045F6C350108021E01D
:104020007949D8F80000884202D045F6C450F5E737
:10403000FCF724FEB8F8101008F1080569B1DFF8A4
:10404000CC9199F80020521C89F80020FCF71AFE48
:104050000026FCF718FD834610E0FCF713FE46F23D
:10406000AB10208000205AE628685A4681684046F6
:10407000FEF7BBF9761CB6B2574502D12889002855
:10408000F2D1FCF7FBFD99F80020521E89F80020C0
:10409000FCF7F8FD380401D4FDF7DBFE002020809A
:1040A00030463CE62DE9FF4F83B01E46DDE9107A2D
:1040B00093468146FCF7E2FDDFF8508198F8002036
:1040C000521C88F80020FCF7DDFDB9F8104009F11A
:1040D000080024B1B10500D4012405682FE0F006E2
:1040E00001D4002300E01023CDE9007A5A4609F1FB
:1040F00020000499FFF799F9FCF7C0FD98F800102B
:10410000491E11F0FF0188F8001009D140490988C3
:1041100031B1FCF7B7FD07B0BDE8F04FFEF7B0BA1C
:1041200007B0BDE8F04FFCF7ADBDA9686D685B4610
:1041300000974846049AFEF757FA641EA4B2002C72
:10414000F3D1FCF79BFD98F80020521E88F8002060
:10415000FCF798FD300401D4FDF77BFE0021AAF89E
:10416000001007B0C2E62DE9FF471E460C9C9046A2
:10417000894605000ED04FF40070B3F5004F18D0FB
:104180000BDCB3B1102B14D0834212D0B6F5047FF0
:104190000CD10EE045F6C35011E0A6F50043103BEC
:1041A00007D0B3F5F87F04D0834202D045F62560EE
:1041B00005E0154F2868B84204D045F6C450208069
:1041C000BDE8FF87FCF75FFC1249097859B100216F
:1041D000CDE90016CDE9020443464A462946384651
:1041E000FEF758FEECE7CDE9000433464246494667
:1041F0002846FFF757FFE3E7074A00211160074A07
:10420000118001807047000051554555A4000020E1
:10421000680000205C000020900000209400002036
:104220000023F94AF7A14361C161116819B18161A5
:104230004861106070478361FBE72DE9F041044657
:10424000F2481746884600781D4610B142F6E160F4
:1042500025E014B3FCF712FDED4E3178491C3170A6
:10426000FCF710FD27620027EA486762C4E90008EE
:1042700004F10800FEF741F92046FFF7D1FFE649B7
:104280000888401C0880FCF7F9FC3178491E317021
:10429000FCF7F8FC2F80BDE8F08145F6C35018808C
:1042A000F9E7DE4940F8201B002102C040F8201940
:1042B000DBA102C0FEF721B9D0E9052100232AB114
:1042C00051B191614A61836143617047CE4A116087
:1042D00001B14B61836170479361F5E72DE9F05FB0
:1042E0000746CA4814468946007810B143F2C920EF
:1042F0000BE047B1080045F6256B0AD0012908D02C
:10430000A2F800B002E045F6C35010800020BDE8DE
:10431000F09FC0493868884202D045F6C450F4E79F
:10432000FCF7ACFC82463D8A5FEA0900DFF8E892C0
:1043300007F10806A84608D001281FD05046FCF710
:10434000A1FCA4F800B04046E1E75FEA080006D00F
:104350005046FCF797FC47F25F102080F3E73846A1
:10436000FFF7AAFFB9F800103846491EA9F8001057
:10437000FFF797FF5046FCF785FC2DE0DFF890B281
:1043800050469BF80010491C8BF80010FCF77AFC93
:10439000FCF779FB824607E0306852468168384670
:1043A000FEF7D0F86D1EADB2002DF5D13846FFF7FF
:1043B00083FFB9F800103846491EA9F80010FFF72E
:1043C00070FFFCF75BFC9BF80020521E8BF800206E
:1043D000FCF758FCFDF73DFD0020BEE72DE9F04756
:1043E00006468A4888B01C460078109D91468A4649
:1043F00010B146F2AE100AE03EB1100009D0B2F59D
:10440000004F06D045F6256001E045F6C3502880F0
:104410005BE080483168814202D045F6C450F6E73F
:10442000002704B12760FCF729FCD6F82080B8F1FA
:10443000000F0BD0A8F10108C6F820800CB1716AFA
:104440002160346AFCF71EFC2F8054E05FEA0941CA
:1044500008D5FCF717FC46F2B0102880404608B09B
:10446000BDE8F0876A490A7822B1FCF70BFC46F6F2
:104470006350CCE78846012188F80010FCF702FC65
:104480005346062231466846FDF7FBFEFCF7F6FB75
:1044900098F80010491E88F80010FCF7F3FBFDF7B0
:1044A000D8FCFCF7EBFB02465F48016891F8350049
:1044B00068B1012810D002281FD0032812D046F678
:1044C0002E6028801046FCF7DDFB0020C7E70CB10A
:1044D000086C20602F800AE00CB1086C206046F266
:1044E000A91003E004B1276047F2D92028801046C4
:1044F000346AFCF7C7FB2046B1E70CB1086C2060BA
:1045000045F6C250F2E72DE9F05F80463F480F467E
:104510001446007810B146F2AA1012E0B8F1000F6C
:104520000DD04FF4807A77B157450CD0B7F5004FD6
:1045300009D0B7F5014F06D045F6256001E045F6F4
:10454000C350108021E03349D8F80000884202D0DF
:1045500045F6C450F5E7FCF791FBB8F8101008F1E8
:10456000080569B1DFF8A89099F80020521C89F875
:104570000020FCF787FB0026FCF785FA834610E055
:10458000FCF780FB46F2AB1020800020BFE62868D5
:104590005A4681684046FDF728FF761CB6B257455B
:1045A00002D128890028F2D1FCF768FB99F8002095
:1045B000521E89F80020FCF765FB380401D4FDF792
:1045C00048FC002020803046A1E62DE9F84F1F4628
:1045D000904689460646FCF751FB318A06F10805EC
:1045E0004FF0000B69B1DFF828A09AF80020521CA8
:1045F0008AF80020FCF746FB5FEA895027D52C8912
:1046000026E013E020000000B00000205C00002045
:10461000A400002053454D41B40000204E4F4E45AC
:104620003F53454D00000000FC000020346A611C2F
:1046300005D0641CC6E90848FCF724FB26E0FCF71B
:1046400021FB46F6C55038800020BDE8F88F0124D4
:104650002D680AE0A9686D6800231A463046CDF837
:104660000080FDF7C1FF641EA4B2002CF2D1346AB1
:10467000FCF704FB9AF80020521E8AF80020FCF791
:1046800001FB5FEA094001D4FDF7E3FBA7F800B0A6
:104690002046DAE72DE9FF410C46060015460DD00D
:1046A0007CB1B4F5007F0CD0B4F5004F09D0B4F55F
:1046B000024F06D045F6256010801AE045F6C3503B
:1046C000FAE7284F3068B84202D045F6C450F3E705
:1046D000FCF7D9F902462448007868B10020039518
:1046E0000090CDE901420346024631463846FEF7C6
:1046F000D1FB002004B0CEE504B02B462146304665
:10470000BDE8F04161E770B5044617480E4615460E
:10471000007810B146F6C65006E03CB11149206859
:10472000884206D045F6C450108070BD45F6C3508F
:10473000FAE700202880FCF7A1FA216A41B9218A12
:1047400031B147F25F112980BDE87040FCF79ABA99
:104750002662F9E7054A00211160054A11800180AF
:104760007047000053454D415C000020B000002020
:10477000B40000202DE9F0410746FCF77FFAD94943
:1047800000250D60D8490D80D8490D80D8490D60AD
:10479000D8490D60D8490D60D8490D60D8490D81C0
:1047A000FCF770FAFCF76AFAD6490C6815E0FCF7DA
:1047B00065FAC4F8B45044F8785F06462563A561ED
:1047C000A582E5826562A562FCF75DF944F8200FD9
:1047D000A4F134008581646A3046FCF753FA002C5A
:1047E000E5D1FCF74BFAC8490C6803E0FCF746FA40
:1047F000A585A469FCF746FA002CF7D101F0C4FAAC
:1048000001F073FF3D80BDE8F081F8B504466946CC
:10481000BE4801F0D9F8BDF8000028BB6A46002167
:10482000022001F0E5FABDF80000E8B9FCF726FA2D
:10483000B74E00253560FCF725FAB649B6480A6838
:1048400003689A4202D9B2FBF3F010B90A21B2FB15
:10485000F1F06A46002101F0CBFA6946AB4800F05E
:104860004AFEBDF8000008B12080F8BDFCF706FA4A
:104870009F49AA4A0D6031681160A94A012111704F
:10488000FCF700FA2580F8BD1CB5A34EA44D306896
:10489000440004E020466A46002101F0A9FA287885
:1048A0000128F7D16846FFF765FF9A48326801682A
:1048B000914204D9B1FBF2F15FEA010B03D1006828
:1048C0000A21B0FBF1FB4FF47A79DFF838A242F20B
:1048D00010764FF00008FCF7D6F80190FCF7CEF9FF
:1048E0008B49904C0A682260C1F80080FCF7CAF935
:1048F0008A48236802689A4228D98B48824202D2A9
:104900003046012113E08948824202D248460A21FA
:104910000DE08748824202D26420014607E08548C4
:10492000824202D20A20494601E001203146B2FB10
:10493000F1F15843B0FBF1F07F49301A80B20880A2
:104940006A490A88824203D2088001E07A480680D8
:1049500001F01DFF0025FCF791F9DAF8004023E093
:10496000FCF78CF9754F3978491C3970FCF78AF9D6
:10497000D4F89C00C4E92780FCF780F93978491EF7
:1049800011F0FF01397007D16D49098821B1FCF799
:1049900079F9FDF775FE01E0FCF774F954F8A00F02
:1049A0000544FCF76BF9E469FCF76CF9002CD7D1EE
:1049B000E5B15D48854202D23746012013E05B48ED
:1049C000854202D24F460A200DE05948854202D264
:1049D0006427384607E05748854202D20A274846EE
:1049E00001E001273046B5FBF0F501E00027012585
:1049F000FCF744F9DAF800401BE0D4F8A000784353
:104A0000B0FBF5F080B2B04200D93046A4F88C007B
:104A1000B4F88E10814201D2A4F88E0004F1AC02E9
:104A20006B46111D204600F03CFFFCF727F9D4F837
:104A3000BC40FCF727F9002CDFD14248017801295E
:104A400004D180F800806846FFF794FEFCF71BF85D
:104A50000199401A26490A68824200D208606A46D3
:104A60000021584601F0C4F935E730B5284A89B02D
:104A7000002111602B4A344C1160284A1160284AE9
:104A80001170304A1170226842B1304A304D1368BB
:104A90002D68AB4205D246F62C6108E046F62B6144
:104AA00005E02C4B1D783F2D04D346F62A6101808A
:104AB00009B030BD032505910691CDE90750264880
:104AC000126824680068CDE9020201940491187804
:104AD0000023AFF24B22009020A1254800F02BF9D3
:104AE000E6E70000700000206A000020BA00002005
:104AF000CC000020E0000020EC0000209C00002002
:104B00004C2F0020D400002090000020E033002033
:104B1000BC000020E46C0008CC6C0008C000002041
:104B2000C8000020C4000020801A060000093D00D3
:104B3000005A62020084D717B8000020A4000020A9
:104B400068000020B6000020D06C0008D86C000877
:104B5000E06C0008846C0008D46C000875432F4F8B
:104B6000532D4949492053746174205461736B007B
:104B7000583200202DE9F0410446F9480D4616460A
:104B8000007810B147F2491004E046F273200DB1ED
:104B90003F2D02D31080BDE8F081ACB10027FCF7B7
:104BA0006DF8DFF8C08398F80020521C88F80020C8
:104BB000FCF768F894F8360008283CD2DFE800F0EB
:104BC0000C261C1C26261C1CFCF758F8E6490C6811
:104BD000FCF758F80127E2E72046FDF716FB84F8BA
:104BE00037502846FEF7F5FF204617B1FDF7ABFB1F
:104BF00013E0FDF7C2FB10E094F8340008280CD253
:104C0000DFE800F00B0404070707070484F83750B7
:104C100003E029462046FDF757FCFCF72FF898F8EB
:104C20000020521E88F80020FCF72CF8FDF711F93F
:104C300000203080AFE7FCF721F898F80010491EFB
:104C400011F0FF0188F8001007D1C849098821B187
:104C5000FCF718F8FDF714FD01E0FCF713F846F631
:104C60002D60E6E7C24B0022C0F8B820196829B1D0
:104C7000C0F8BC10C1F8B80018607047C0F8BC207C
:104C8000FAE770B50025056085604560C56005617F
:104C9000456104468561B7A0C4E907506562A56215
:104CA000E5622564E565A4F86050294604F16400D6
:104CB000FEF78BFB6567A567C4F88050A4F88850A1
:104CC0000020C4F8845004EB8001401CCD6710F034
:104CD000FF00F8D06564C4F8A450C4F8A850A563D8
:104CE00084F88A50C4F8B050C4F8AC50A5874FF08F
:104CF0000040C4E9120525656565A565A4F88C50DA
:104D0000A4F88E50C4F89050C4F894503434FBF793
:104D1000BAFEC4E91905C4F8805004F8015B4020CC
:104D200004F8015B04F8015B04F8810B93A020C434
:104D3000C4E9005070BD2DE9FF4F83B00446884898
:104D4000DDE91785DDE910970078DDF854A0139EA2
:104D500010B147F24A102AE04CB1059850B167B142
:104D60008748006886420BD246F630601FE047F263
:104D7000AD101CE047F24F1019E046F62F6016E028
:104D80001298B04202D346F6316010E046F273202A
:104D9000B9F1400F0BD25FEA090103D0B9F13F0F1F
:104DA00002D008E0774900E077498C4203D02880A0
:104DB00007B0BDE8F08F2046FFF763FF4FF0000B10
:104DC000A5F800B05FEAC8700AD05FEA887007D51E
:104DD000384600215A4601E004C0491CB142FBD3C9
:104DE0001298CDE9006807EB8005DDE905012B4647
:104DF0003A4601F0E4FC0599A1620699E162049942
:104E0000216284F83790C4F854A0A56020605FEA5E
:104E10000A003AD0A06516986762A6636060A4F89D
:104E20003C800020594604EB8002401CD16710F002
:104E3000FF00F8D004F164001499FEF7C6FA20468A
:104E400001F0ABFCFBF71AFF464D2978491C29708D
:104E5000FBF718FF94F83700FEF7BBFE2046FDF77E
:104E60008CFA2046FFF7FEFE48490888401C08805F
:104E70004748007801281AD0FBF700FF2978491E1F
:104E800011F0FF01297003D00CE042480068C1E72F
:104E90003649098831B1FBF7F5FE07B0BDE8F04FA0
:104EA000FDF7EEBB07B0BDE8F04FFBF7EBBEFBF73D
:104EB000E5FE2978491E2970FBF7E4FE07B0BDE83E
:104EC000F04FFCF7C6BFD0E92E2100234AB181B1D3
:104ED000C2F8BC10C1F8B820C0F8BC30C0F8B83077
:104EE0007047234A116009B1C1F8B830C0F8BC302E
:104EF0007047C2F8BC30F1E770B5044618480D465B
:104F0000007810B147F24E100AE01F48844202D1E7
:104F100047F24C1004E01B48844203D147F24D1085
:104F2000088070BD2CB9FBF7A9FE0F490C68FBF790
:104F3000A9FEFBF7A3FE0B4E3178491C3170FBF73D
:104F4000A1FE94F8360008285BD2DFE800F00425C3
:104F50002929392529292046FDF757F930E0000095
:104F60005C000020A4000020FC000020680000205D
:104F7000D40000203F5461736B000000200000004B
:104F8000E06C0008882E0020C42D0020D8000020EE
:104F90005D000020A8000020204600F081FD0FE009
:104FA000204600F07DFD94F83400072808D2DFE8A1
:104FB00000F007040704040404002046FDF7A0F9EC
:104FC00004F16400FEF7E9F9204601F0ECFB20460D
:104FD000FFF779FFF9490888401E08802046FFF74F
:104FE00050FEFF2084F83600FBF748FE3178491E5A
:104FF0003170FBF747FE00202880BDE87040FCF7C9
:1050000028BFFBF73BFE3178491E11F0FF013170DC
:1050100007D1EB49098821B1FBF734FEFDF730FBDE
:1050200001E0FBF72FFE46F62D60288070BD70B5BD
:105030000446E4480E46007820B14FF46C500880D6
:10504000002070BD2CB9FBF719FEDF490C68FBF797
:1050500019FEFBF713FEDD4D2978491C2970FBF77B
:1050600011FE04F16400FEF798F90446FBF706FE12
:105070002978491E11F0FF01297007D1D04909880C
:1050800021B1FBF7FFFDFDF7FBFA01E0FBF7FAFDAD
:1050900000203080204670BD2DE9F84F8346C94876
:1050A0000A9D1C46007816460F4610B146F2AE1017
:1050B0000AE03EB1080009D0B1F5004F06D045F630
:1050C000256001E046F2D52028801CE04FF0000961
:1050D0000CB1C4F80090FBF7D1FDDFF8EC82009032
:1050E0002B46D8F80000224631466430FEF774F9AA
:1050F0008246288850B1380419D546F2B01028806D
:105100000098FBF7BFFD0020BDE8F88F54B1FBF716
:10511000BAFC2168401AD8F8001048678A6F8242AA
:1051200000D288670098FBF7ADFD5046ECE7A74832
:10513000017829B10098FBF7A5FD46F66350C3E757
:105140000746012038700098FBF79CFD00215B4664
:1051500002220846FDF795F8FBF790FD3978491EC5
:105160003970FBF78FFDFCF774FEFBF787FD824675
:10517000D8F8000090F8351091B101294FF00007E0
:1051800026D0A6F800901CB1D8F80000006C206072
:1051900047F2D92028805046FBF774FD3846B3E724
:1051A000C76DB0F8600030807CB1D8F80000006CAA
:1051B0002060FBF768FC0146D8F80000026C891AF1
:1051C0004167826F8A4200D28167A5F80090E2E7CA
:1051D0004846A6F8009004B1206046F2A910D9E72D
:1051E0002DE9F041054677480F461446007810B186
:1051F00046F2AA1005E037B1B7F5004F03D045F6E7
:105200002560108014E0FBF739FD1DB16E49096877
:105210008D4204D1FBF736FD46F2AC1007E095F85D
:105220003410022906D0FBF72DFD46F2AB1020808A
:105230000020B0E4654E3178491C3170FBF722FD47
:10524000FBF721FC024629460020FDF7CEF8FBF7CC
:1052500015FD3178491E3170FBF714FD380401D477
:10526000FCF7F7FD00202080012094E42DE9FC5F8D
:105270009946DDE90C7592468B460446FBF7FEFC29
:10528000524E3178491C3170FBF7FCFC0CB94E488A
:1052900004680020288094F83600DFF8248108286C
:1052A0003CD2DFE800F004041E1E04041E1ECDE9FB
:1052B00000754B465246594604F16400FEF7B5F8B6
:1052C000FBF7DCFC3178491E11F0FF01317021D170
:1052D000B8F80010F1B1FBF7D5FCBDE8FC5FFDF7B5
:1052E000CFB994F834000228E1D153465A462146FA
:1052F00000200097FDF778F9FBF7C0FC3178491ED4
:105300003170FBF7BFFC5FEA09401CD4BDE8FC5FCD
:10531000FCF79FBDBDE8FC5FFBF7B4BCFBF7AEFC40
:105320003178491E11F0FF01317007D1B8F8001033
:1053300021B1FBF7A7FCFDF7A3F901E0FBF7A2FC05
:1053400046F62D602880BDE8FC9F2DE9FF411C003A
:105350000A9D16460F4680460DD0102C0BD0B4F592
:10536000004F08D0A4F50040103804D045F6256061
:105370002880BDE8FF81FBF786FB1249097859B107
:105380000021CDE90014CDE9020533463A464146F5
:105390000F48FDF77FFDECE7CDE9000523463246D7
:1053A00039464046FFF762FFE3E770B5154604460D
:1053B00081B146F679101080002070BDD800002021
:1053C000680000205C000020FC000020A4000020F9
:1053D000544D5347FBF752FC0CB9FD490C68E46F80
:1053E000FBF750FC002028802046E6E710B5044675
:1053F000FBF744FCF7490A7832B145F6DA1121800F
:10540000FBF740FC012010BD01220A70FBF73AFCBB
:105410000020208010BD70B51D461646044619B107
:1054200046F679101880C8E7FBF728FC0CB9E84964
:105430000C68E667FBF726FC00202880BDE770B506
:105440000D460446FBF71AFC00262E8094F8361011
:1054500008294AD2DFE801F0040404040A23333D9A
:10546000FBF710FC47F25310288024E0DA4D29782E
:10547000491C2970FBF706FC94F88A00401E10F0C6
:10548000FF0084F88A0004D184F836602046FCF7D7
:105490009FFFFBF7F3FB2978491E297009E094F878
:1054A0008A10491E11F0FF0184F88A1001D10121F0
:1054B00018E0FBF7E7FBBDE87040FCF7CABC94F8C6
:1054C0008A10491E11F0FF0184F88A10F1D10221DF
:1054D00008E094F88A10491E11F0FF0184F88A1040
:1054E000E7D1032184F83610E3E7FBF7CBFB46F660
:1054F0002D60288061E77FB50D460446FBF7BEFBB3
:105500001CB1B34909688C4205D1FBF7BBFB47F2DC
:10551000571028807FBDFBF7B5FBB048007858B125
:105520000020CDE902050090034602460190214685
:10553000AB48FDF7AFFC7FBD04B029462046BDE86F
:1055400070407CE72DE9F0478246A44814460F4698
:1055500000781D4610B146F2AE1005E037B1B7F540
:10556000004F03D045F62560188037E0002604B1CF
:105570002660FBF783FBDFF858828146D8F80000ED
:10558000416CD1B1491E4746884641640CB1006C5C
:105590002060FBF778FA39680A6C801AC1F8A40019
:1055A000D1F8A820824201D2C1F8A8004846FBF7F2
:1055B00069FB2E804046BDE8F087380405D5484693
:1055C000FBF760FB46F2B01007E0834F387838B144
:1055D0004846FBF757FB46F6635028800020EAE771
:1055E000012038704846FBF74DFB00215346072247
:1055F0000846FCF746FEFBF741FB3978491E397037
:10560000FBF740FBFCF725FCFBF738FBD8F8001054
:105610008146474691F8350030B1012816D003285D
:105620001AD046F62E601BE074B1086C2060FBF7C0
:105630002AFA39680A6C801AC1F8A400D1F8A820A7
:10564000824201D2C1F8A8002E800AE00CB1086C99
:10565000206046F2A91003E004B1266047F2D92089
:1056600028803868446C4846FBF70CFB2046A2E7CC
:105670002DE9F041054659480E461446007810B110
:1056800046F2AA1005E036B1B6F5004F03D045F654
:105690002560108014E0FBF7F1FA1DB14C49096850
:1056A0008D4204D1FBF7EEFA46F2AC1007E095F814
:1056B0003410072906D0FBF7E5FA46F2AB1020803C
:1056C0000020B6E5FBF7DEFAFBF7D8FA424F39784F
:1056D000491C3970FBF7D6FAFBF7D5F90246294683
:1056E0000020FCF782FEFBF7C9FA3978491E3970B1
:1056F000FBF7C8FA300401D4FCF7ABFB0020208094
:10570000012096E52DE9F84F984616468A4604464C
:10571000FBF7B4FA304D2978491C2970FBF7B2FA2F
:105720000CB92B48046800202E4F2664A8F800000E
:1057300094F8360046F6C559082859D2DFE800F03B
:105740002424202024242020FBF79CFAFCF798FF37
:1057500001E0FBF797FAA8F800900020D4E4761C4B
:105760006664FBF78BFA2978491E11F0FF01297056
:105770003BD13988C1B3FBF785FAFCF781FF4DE0D7
:1057800094F8340007280ED0666C701CE7D1FBF744
:1057900075FA2978491E11F0FF012970D9D139888D
:1057A0000029D6D0D0E700231A4621461846009695
:1057B000FCF71AFF666CFBF761FA2978491E29701D
:1057C000FBF760FA5FEA0A4028D4FCF742FB25E0C9
:1057D000FC000020DA000020A40000205C00002073
:1057E0005452455368000020FFE7FBF74BFA15E0E1
:1057F000FBF744FA2978491E11F0FF01297006D100
:10580000398821B1FBF73EFAFCF73AFF01E0FBF7DC
:1058100039FA46F62D60A8F800000026304673E4F9
:105820007FB50C000646154606D0B4F5004F03D0F0
:1058300045F62560108010E0FBF725F902468D48FB
:10584000007868B1002001A9009081E82500034696
:10585000024631468848FDF71DFB002004B0ACE548
:1058600004B02B4621463046BDE870404AE72DE99A
:10587000F04104467F480F461546007820B146F6B1
:10588000C65010800020D4E4FBF7F8F90CB97B492E
:105890000C68666C6764FBF7F5F9002028803046D9
:1058A000C7E42DE9F0410546724816460F460078D8
:1058B0001C4610B147F2591007E046F2D52027B137
:1058C0001EB1FBF7DBF915B103E01880B1E46B49B9
:1058D0000D684FF00008296841B195F83C10C907E0
:1058E0000DD0FBF7CFF90020696A14E0FBF7CAF985
:1058F000C7F8008047F25210C6F8008007E0FBF7B7
:10590000C1F9C7F8008047F25410C6F80080208023
:105910008FE4401C091D0A68002AFAD03860A96B80
:10592000081A3060A4F8008083E42DE9F0410D46A8
:105930000446FBF7A3F9514904B90C680968504EB5
:105940008C4206D1317821B1FBF79CF946F66350C1
:1059500038E00021298094F83610012708292DD23B
:10596000DFE801F004171F21272727273178491C7A
:105970003170FBF787F9042084F8360084F88A70C8
:105980002046FCF742FCFBF779F93178491E31706B
:1059900001E0052108E0FBF775F9BDE8F041FCF7EF
:1059A00058BA062100E0072184F8361084F88A707E
:1059B000F1E714F88A1F491C2170ECE7FBF762F944
:1059C00046F62D60288034E41FB52E4A904202D15D
:1059D00047F25B1004E02C4A904203D147F25C107E
:1059E00008801FBD234A127852B10022CDE902215E
:1059F00001460092134601922448FDF74BFA1FBD61
:105A000004B0BDE8104090E770B5044619480E4652
:105A10001546007818B146F6C6501080CDE4FBF765
:105A20002DF901460CB9154804685EB1304666652B
:105A3000A26D904200D9A0650846FBF723F900202B
:105A40002880BAE4124800686065F1E7114A002135
:105A50001160114A1180114A116001807047074896
:105A600008B5006800F0A5FE69460020FFF744FA7B
:105A700008BD00005C00002054534947FC00002092
:105A8000A4000020C42D0020882E0020545355531C
:105A9000A8000020D4000020D8000020D000002062
:105AA00010B5C169002915D0002404650A68824236
:105AB00004D142690A6032B1946104E0D0E905235F
:105AC0005A6102B1936144618461C461C46488888D
:105AD000401E888010BD2DE9F05FFBF7CFF8B24A79
